:020000040000FA
:06000000020B260201F3D1
:03002B000207C009
:030043000206555D
:0300530002012D7A
:03006B000207E9A0
:1000830002018401010105030101FF0F10FEFFD1ED
:100093002D00000000A52C00000000FF000000FF61
:1000A300000196511800020000F81C0000AA1C6809
:1000B3001C881DC81C401DA41C981C0000000000C7
:1000C300000000000000000000000000000000002D
:1000D30000000006FFFFFF00081001010400541B8D
:1000E300000000E8030000FFFF231C03E8030000F7
:1000F30064006400B801A0BB0D00A0BB0D000202A8
:10010300000800000502070401051E02051E020A7D
:100113000A01080803B80B02803E0102FEFFE80350
:100123000A050001FFFF0A1401E0C0E074F21204A3
:1001330072A2AFE433F508D2AFAFA7AEA1EE5F541E
:100143001060061219E675A1EFEE5F5408600812FD
:1001530019EC75A1F78023EEA2E092F0EFA2E08202
:10016300F05017906198E0F8900B52E0C398A2D238
:1001730065D0335002E8F075A1FE751A00E50880DA
:1001830066C0E074F2120472A2AFE433FED2AF9001
:1001930061A4E0F8759B00E59158540860087591D7
:1001A300F7121A348023E59158541060087591EFC3
:1001B300121A3A8014E591A2E092F0E8A2E082F0EC
:1001C3005007E0C2E0F0121B969061A3E0F8E5E966
:1001D300585404600E121B6C75E9FB906193E0A206
:1001E300E640F2751A00EEA2E092AF7F010204D15D
:1001F300C0E074F2120472A2AFE433FED2AF906196
:10020300A5E0F8E5BF585404600675BFFB121BAEAA
:1002130080D1C3E498F8E499F91202568026C3E426
:100223009AFAE49BFBE920E7E9120256E498F8E422
:1002330099F922C3E498F8E499F9120256E498F87C
:10024300E499F9C3E49AFAE49BFB22EB20E7CFE9B4
:1002530020E7E0B90010BB0008E88AF084F8AAF0B0
:1002630022E4FBC8FA22EB70227B10C833C8C933DF
:10027300C9335007C39AC3DBF280069A50012ADBC5
:10028300EAC833F4C8C933F4C9FA2275F008E4C8DC
:1002930033C8C933C933C99AC99B5004C92AC93B56
:1002A300D5F0ECFBC833F4C8E4C9FA22080808EA1D
:1002B300C0E0EBC0E086F0E7A4FA180986F0E7A4F3
:1002C3002AFA180986F0E7A42AFA180986F0E7A49F
:1002D3002AFA1986F0E7A4FBE5F02AFA190886F052
:1002E300E7A42BFBE5F03AFA190886F0E7A42BFB09
:1002F300E5F03AFA18180986F0E7A4C5F02BFBE4F9
:100303003AFA1908E7C5F0C6A426F6E5F03BFBE484
:100313003AFA1886F0E7A4F6E5F00826F6E43B0877
:10032300F6E43A08F6D0E0FBD0E0FA22E4CFC0E0EE
:10033300E4CEC0E0E4CDC0E0E4CCC0E075F020E65C
:1003430026F608E633F608E633F608E633F6181819
:1003530018EC33FCED33FDEE33FEEF33FFC3EC97C4
:1003630009ED9709EE9709EF97191919400FFFEC5B
:1003730097FC09ED97FD09EE97FE191906D5F0BF15
:10038300ECF709EDF709EEF709EFF7191919D0E0C2
:10039300FCD0E0FDD0E0FED0E0FF222518C582C0EE
:1003A300E0E51934FFC583C0E0E518C3958224F85E
:1003B30010AF088583198582188008858319858283
:1003C30018D2AFCEF0A3E520F0A37808E608F0A397
:1003D300DEFAEFF0A3E58124FAF8E608F0A3E608D5
:1003E300F0A3E608F0A30808E608F0A3E608F0A3E4
:1003F30015811581D0E0FED0E0F8158115811581B6
:10040300E8C0E0EEC0E022120BB8B9000302045CBE
:10041300E49004D17808791A8002F0A3D8FCD9FAC1
:10042300781A9000867A01BA00028007E493A3F653
:1004330008DAF97AD87B1D90008778A779018015AF
:10044300E493A3AD82AE838A828B83F0A3AA82ABAB
:10045300838D828E83D8E9D9E77582947583D074AE
:10046300061208B17582A275832A74001208B1C0FE
:10047300D02518C582C0E0E51934FFC583C0E0E587
:1004830018C3958224F310AF0885831985821880D9
:1004930008858319858218D2AFC8F0A3E9F0A3EACF
:1004A300F0A3EBF0A37908E709F0A3D8FAECF0A3E3
:1004B300EDF0A3EEF0A3EFF0A3D0E0F0A3D0E0F0D3
:1004C300A3D0E0F0A3E520F0A3E5F0F0A322851983
:1004D30083851882E0C0E0A3E0F9A3E0FAA3E0FB80
:1004E300A37808E0F608A3DFFAE0FCA3E0FDA3E0AD
:1004F300FEA3E0FFA3E0C0E0A3E0C0E0A3E0F5D0EB
:10050300A3E0F520A3E0A3F5F010AF0885831985D8
:1005130082188008858319858218D2AFD082D08350
:10052300D0E0F8D0E032E4730975F0108E218F2209
:10053300858226858325851882851983E0CEA3E0ED
:10054300CF852682852583EBC9EAC8EDCBECCAC3E8
:10055300E833C8E933C9EA33CAEB33CBC3EA9EF5C0
:1005630024EB9FF523B35004AB23AA24EC33CCED47
:1005730033CDD5F0DAAE21AF2222D083D082ECC0C6
:10058300E0EDC0E0E493A3FCE493A3FDED4C600D28
:10059300120698EC24FFFCED34FFFD80EFE493A3F7
:1005A300FCE493A3FDED4C600D12076BEC24FFFC00
:1005B300ED34FFFD80EFD0E0FDD0E0FCE493A3C079
:1005C300E0E493C0E022D083D082E9C0E0E493A3C7
:1005D300C386F0C5F095F0F908E493A386F0C5F05F
:1005E30095F0700BE493A3C3994005E9048002A33B
:1005F300E475F002A42582F582E5F03583F583D016
:10060300E0F9E493A3C0E0E493C0E0228519838575
:100613001882E0A3FEE0A3F5207808E0A3F608DF44
:10062300FAE0A3FFE0A3C0E0E0A3C0E0E0A3C0E0E2
:10063300E0A3C0E0E0A3C0E010AF08858218858383
:10064300198008858218858319D2AFD083D082029E
:1006530008B7C0E074F2120472A2AFE433FED2AF63
:10066300C2C0901CD0E0700BE5D1A2E4501D12195A
:10067300448018E5D1A2E3500675D1F712191AE5A3
:10068300D1A2E4500675D1EF121920EEA2E092AF89
:100693007F010204D1C0E0C3E493960874019396EA
:1006A30018400FE49366700808740193661870008D
:1006B3007019A3A3C3E49396087401939618A3A394
:1006C300400DD0E0D0E0D0E00205B9A3A3A3A3A3DB
:1006D300A3D0E022D083D082C5F0E493A3C5F0C3B6
:1006E30095F0F5F0E493A3C395F04005E5F004809D
:1006F30001E475F002A42582F582E5F03583F583E4
:10070300E493A3C0E0E493C0E02274048004740281
:100713008000CCC0E0EDC0E0E518C39CCCAD19501F
:10072300011D10AF068C188D1980068C188D19D2F7
:10073300AF120833D0E0FDD0E0FC2274028000CC7D
:10074300C0E0EDC0E0E518C39CCCAD1950011D100D
:10075300AF068C188D1980068C188D19D2AF12082C
:1007630011D0E0FDD0E0FC22C0E0C0F088F0E493BB
:100773006670080874019366187000A8F0A3A3704C
:100783000BD0F0D0E0D0E0D0E00205B9A3A3D0F0C5
:10079300D0E022D083D082CCC0E0E493A3600612E1
:1007A30008541470FAE493A360061209831470FAD0
:1007B300D0E0FCE493A3C0E0E493C0E022C0E0C037
:1007C300D0E8C0E0E9C0E0A9A8D2AFC2C7751A005B
:1007D300E9A2E7E433F8E9A2E792AFD0E0F9D0E089
:1007E300F8D0D0D0E032C0E074F212047275890000
:1007F300C2C5901CD0E0700E7A007B10900BECE029
:10080300F9121EC080031229047F010204D1CAC059
:10081300E0E493A3C582CCC582C583CDC583F0A391
:10082300C582CCC582C583CDC583DAE5D0E0CA22B3
:10083300CAC0E0E0A3C582CCC582C583CDC583F021
:10084300A3C582CCC582C583CDC583DAE6D0E0CA11
:1008530022C0E0E493A3D39C5010E493A3C39C4031
:100863000AD0E0D0E0D0E00207B3A3A3A3D0E022F4
:10087300C008C3E096F50808A3E096420808A3E081
:1008830096420808A3E09645087001D3D008227069
:1008930009080808226016181818C6C333C608C604
:1008A30033C608C633C608C633C6D5E0EA22C09F9E
:1008B300F59FE473D09F22D083D082C09FE493C07E
:1008C300E0740193C0E0740293F59F2200C0D02529
:1008D3001810AF08F518500C05198008F5185002C8
:1008E3000519D2AFD0D0222518F58210AF08F5181C
:1008F300400C15198008F51840021519D2AF851957
:1009030083227404800A74038006740280027401D3
:10091300C0E0F4041208EAD0E0120B6322BB010228
:10092300E722C082C08389828A83BB0003E08002FE
:10093300E493D083D082226016080808C6C313C686
:1009430018C613C618C613C618C613C6D5E0EA22BE
:100953002518F8E43519F9222518FAE43519FB228C
:100963002518FCE43519FD22C3E0C696F608A3E07A
:10097300C696F608A3E0C696F608A3E0C696F62246
:10098300C0E0E493A36C7009D0E0D0E0D0E00207AC
:10099300B3A3A3D0E022251810AF08F518400C1517
:1009A300198008F51840021519D2AF22E0667010BD
:1009B30008A3E066700A08A3E066700408A3E06673
:1009C30022C3E09608A3E09608A3E09608A3E09666
:1009D300A2D265D03322E76670100809E766700A71
:1009E3000809E76670040809E76622C3E697F60874
:1009F30009E697F60809E697F60809E697F622C38B
:100A0300E49396087401939608740293960874030A
:100A1300939622C3E096F008A3E096F008A3E0962D
:100A2300F008A3E096F022E657F60809E657F60821
:100A330009E657F60809E657F622E026F608A3E08A
:100A430036F608A3E036F608A3E036F622E493F67A
:100A530008740193F608740293F608740393F6225C
:100A6300E056F608A3E056F608A3E056F608A3E01E
:100A730056F622E056F008A3E056F008A3E056F03D
:100A830008A3E056F022E647F60809E647F6080908
:100A9300E647F60809E647F622700422600D18C6F9
:100AA300C333C608C633C6D5E0F41822E627F608D2
:100AB30009E637F60809E637F60809E637F622E0CD
:100AC30026F008A3E036F008A3E036F008A3E036EA
:100AD300F022E4C396F608E496F608E496F608E4F2
:100AE30096F622600D08C6A2E713C618C613C6D52C
:100AF300E0F322C6F4C608C6F4C608C6F4C608C6A0
:100B0300F4C622C3E7960809E7960809E796080999
:100B1300E79622C3E09608A3E09608A3E09608A30D
:100B2300E0962275D00075813F7518D175190400C0
:100B330002040AE6F008A3E6F008A3E6F008A3E639
:100B4300F022600C08C6C313C618C613C6D5E0F45A
:100B530022E0F608A3E0F608A3E0F608A3E0F622F5
:100B6300CAC0E0E6F0A308DAFAD0E0FA22E8F0A37C
:100B7300E9F0A3EAF0A3EBF022E0F8A3E0F9A3E0A5
:100B8300FAA3E0FB22ECF0A3EDF0A3EEF0A3EFF069
:100B930022E0FCA3E0FDA3E0FEA3E0FF22EAF0A332
:100BA300EBF0A3ECF0A3EDF022E0FAA3E0FBA3E06B
:100BB300FCA3E0FD22E5C754F84401F5C7790122FF
:100BC3002518F582E43519F58322C2AF75D69F0245
:100BD3000000221208BA7EA0031208BA8BA00312E7
:100BE30008BA94A0031208BA76A2031208BAA2A301
:100BF300031208BAB2A3031208BAEDA4031208BA87
:100C030061A5031208BA9BA5031208BACCA6031266
:100C130008BA2DA7031208BA69A7031208BA43A991
:100C2300031208BA00AD031208BA14AD031208BACE
:100C33001EAD031208BA28AD031208BA32AD03126F
:100C430008BA3CAD031208BA55AD031208BA5FAD3A
:100C5300031208BAD6AD031208BAE1AD031208BAFB
:100C630010AE031208BA38AE031208BA43AE031229
:100C730008BAA8AE031208BAB2AE031208BABDAEE0
:100C8300031208BAE1AE031208BA05AF031208BA99
:100C930077AF031208BAC0AF031208BADCAF03126E
:100CA30008BA4DB0031208BA99B0031208BAE2B0F9
:100CB300031208BA20B1031208BAA1B1031208BA89
:100CC30048B2031208BA0DB4031208BA72B403127D
:100CD30008BAA0B5031208BAC6B5031208BA0EB70C
:100CE300031208BA48BA031208BA46BC031208BA78
:100CF30011BE031208BAAABE031208BAABC003128C
:100D030008BA60C1031208BA99C1031208BA09C22A
:100D1300031208BA13C2031208BA3CC4031208BA76
:100D23003FC5031208BA7CC6031208BAD3C603121E
:100D330008BA7EC7031208BA2EC9031208BA7BCABF
:100D4300031208BA9BCA031208BAF0CA031208BAFC
:100D5300F1CB031208BA19CC031208BA78CC0312E8
:100D630008BA70CD031208BAE7CD031208BAFACE57
:100D7300031208BA68CF031208BA67D0031208BA7D
:100D8300C1D2031208BAEAD2031208BA50D403122A
:100D930008BAD2D5031208BA29D6031208BAD7D68D
:100DA300031208BA7CD7031208BADFD7031208BAB2
:100DB3009DD8031208BA2FD9031208BA8ED9031289
:100DC30008BAD0D9031208BA01DA031208BA58DBF9
:100DD300031208BA0080021208BA3280021208BA5B
:100DE3006B80021208BA3482021208BA78820212A5
:100DF30008BA4E83021208BAAD83021208BAC3843A
:100E0300021208BA0F85021208BA9D87021208BAA5
:100E1300818A021208BAC88B021208BA608C0212C5
:100E230008BA6C8C021208BAB58C021208BAF78D94
:100E3300021208BAED8E021208BA178F021208BA0C
:100E43006D8F021208BAC68F021208BA39900212C5
:100E530008BA6F92021208BAF193021208BADC942C
:100E6300021208BA2696021208BA5E98021208BA4B
:100E73005B9B021208BA6A9B021208BAFE9B02121B
:100E830008BAA99C021208BAEC9C021208BA359D52
:100E9300021208BA859D021208BAE99D021208BA25
:100EA3005B9E021208BA779E021208BAA69E02122D
:100EB30008BAE59E021208BAE09F021208BA8FA090
:100EC300021208BA0CA3021208BA3EA4021208BA0C
:100ED30016A5021208BA98A5021208BACDA90212E1
:100EE30008BAFCA9021208BA57AA021208BA8AAAB7
:100EF300021208BA02AB021208BA35AB021208BAE0
:100F030096AB021208BAE6AB021208BAB3AC0212ED
:100F130008BA6CAD021208BA30AE021208BAAAB00F
:100F2300021208BA0CB2021208BA5DB3021208BA6E
:100F330081B4021208BA84B4021208BAB3B402121A
:100F430008BAABB6021208BA6AB7021208BA99B75E
:100F5300021208BAB7B8021208BA7FB9021208BA65
:100F630040BB021208BAB0BB021208BAE2BB0212BB
:100F730008BA02BC021208BA71BC021208BA6ABDEE
:100F8300021208BA8EBD021208BA01BE021208BAD2
:100F93002AC0021208BA89C0021208BADDC00212BE
:100FA30008BA0CC3021208BAEFC3021208BA77C414
:100FB300021208BA5BC5021208BAE5C5021208BAE2
:100FC300F9C5021208BA0DC6021208BA21C60212E6
:100FD30008BA35C6021208BA62C6021208BA92C625
:100FE300021208BA4DC8021208BA23C9021208BA7B
:100FF300C7C9021208BA1CCA021208BA7FCA02126F
:1010030008BAC8CA021208BAE3CA021208BA34CB31
:10101300021208BAFCCB021208BAA2CC021208BA16
:1010230028CE021208BAB3CE021208BAF6CE0212C2
:1010330008BA8FD0021208BAD6D0021208BA48D121
:10104300021208BA9DD2021208BA46D3021208BA93
:101053007AD3021208BA92D3021208BA35D4021212
:1010630008BAB1D6021208BA59D8021208BA77D808
:10107300021208BA95D8021208BA61D9021208BA44
:10108300AFDC021208BACB81011208BA0D82011239
:1010930008BA7A87011208BAC687011208BA0C88FF
:1010A300011208BA5D89011208BAC289011208BA8D
:1010B300068A011208BA6C8B011208BAC78E011294
:1010C30008BAFA8F011208BA899B011208BA199C4F
:1010D300011208BA039F011208BA68A0011208BAE4
:1010E300CBA0011208BAE7A1011208BA51A3011259
:1010F30008BA30A4011208BA9EA6011208BA30A891
:10110300011208BAC1A8011208BAE0A9011208BA6B
:101113006DAA011208BA77AA011208BA9FAA01128E
:1011230008BA42AB011208BA2DAC011208BAF5ACE9
:10113300011208BA82AD011208BA98AD011208BAB9
:10114300B5AD011208BADEAD011208BA0BAE011239
:1011530008BA4FB0011208BA22B1011208BA66B137
:10116300011208BAE8B1011208BA89B2011208BA29
:10117300BBB2011208BA02B3011208BA35B30112A5
:1011830008BA79B3011208BAC8B3011208BACDB3C9
:10119300011208BA29B4011208BA6DB4011208BACF
:1011A30052B5011208BA9CB5011208BA01B6011270
:1011B30008BA5FB6011208BADEB6011208BA56BA07
:1011C300011208BA59BB011208BAEFBC011208BADE
:1011D30032C0011208BAD4C0011208BA1DC30112E9
:1011E30008BAD8C3011208BA17C4011208BADBC57A
:1011F300011208BAF8C5011208BA01C6011208BAE9
:101203000AC6011208BA15C6011208BA34C6011279
:1012130008BA58C8011208BAB5C8011208BABFC83B
:10122300011208BAC9C8011208BA2CC9011208BAB6
:1012330088C9011208BA95CA011208BAF6CA01127E
:1012430008BA07CC011208BA50CC011208BA1ACD59
:10125300011208BA31CE011208BAF5CE011208BA4A
:1012630041D0011208BA45D1011208BA3ED2011287
:1012730008BA56D2011208BA8DD2011208BA97D20F
:10128300011208BAA1D2011208BAACD2011208BAEB
:10129300CAD2011208BA12D3011208BA70D30112CA
:1012A30008BA97D3011208BAA9D3011208BA52D4C3
:1012B300011208BA8BD4011208BABCD5011208BABC
:1012C30019D6011208BA0AD7011208BA40D7011277
:1012D30008BAB0D7011208BA2CD8011208BAADD98E
:1012E300011208BAD4DA011208BA96DB011208BA5D
:1012F30064DC011208BAE9DC011208BA98DD0112B4
:1013030008BA80DE011208BA19DF011208BAF5DF44
:10131300011208BA5DE0011208BA1CE1011208BA11
:1013230078E1011208BADCE1011208BAA2E2011263
:1013330008BAC5E2011208BA7FE3011208BAA1E3B1
:10134300011208BA02E4011208BA32E6011208BA1D
:101353002BE7011208BAD7E7011208BAF4E9011220
:1013630008BA3DEA011208BA88EA011208BAE4EAA7
:10137300011208BA42EB011208BA66EB011208BA6D
:101383008AEB011208BABFEB011208BAE7EB0112AC
:1013930008BA2CEC011208BA8AEC011208BAE3EC81
:1013A300011208BADDED011208BA89EF011208BA79
:1013B300CEEF011208BAF7EF011208BA80F001125A
:1013C30008BAF3F0011208BA01F1011208BA25F1C3
:1013D300011208BA7BF1011208BA96F1011208BA98
:1013E30051F2011208BA7DF2011208BAC0F20112D9
:1013F30008BA23F3011208BA33F5011208BA5FF5EC
:10140300011208BA1AF6011208BAFEF6011208BA56
:1014130092F7011208BA78E6051208BAB0E6051287
:1014230008BAD1E6051208BA13E7051208BA77E736
:10143300051208BA81E7051208BA91E7051208BA3E
:10144300C8E7051208BA71EB051208BA39ED05129F
:1014530008BA1DEF051208BABFEF051208BA49F022
:10146300051208BA6431001208BA0D32001208BA24
:10147300EC32001208BAF833001208BA183400121A
:1014830008BA3A35001208BAEA36001208BA5737D2
:10149300001208BA2838001208BA2E39001208BA06
:1014A300A639001208BAE139001208BA3A3A001212
:1014B30008BA753A001208BABE3A001208BA523B8B
:1014C300001208BAE83B001208BABD3C001208BA81
:1014D300903D001208BA1E3E001208BA443E0012A4
:1014E30008BA713E001208BAA23E001208BA6F3F52
:1014F300001208BA7F3F001208BAD23F001208BA9E
:10150300DF3F001208BAEC3F001208BAF53F0012A1
:1015130008BA5940001208BAB740001208BA02418B
:10152300001208BA1D41001208BA4441001208BA59
:101533006141001208BA6D41001208BAFE4200125E
:1015430008BA1743001208BA9343001208BAA64315
:10155300001208BAB643001208BA5A44001208BA75
:10156300C645001208BAD946001208BA79470012D4
:1015730008BA8347001208BA0248001208BA13488F
:10158300001208BA5248001208BA8048001208BA7A
:101593004D49001208BAA449001208BADD490012E5
:1015A30008BA334A001208BA514A001208BA9F4ACD
:1015B300001208BA6A4B001208BAB84B001208BAF4
:1015C300054C001208BA884C001208BAB24C00123B
:1015D30008BAE84C001208BAF74C001208BA564D84
:1015E300001208BACE4D001208BA0F4E001208BA04
:1015F3005F4E001208BA8A4E001208BAA44E0012B7
:1016030008BABE4E001208BA934F001208BA9D4F93
:10161300001208BAD84F001208BAE84F001208BAED
:10162300F14F001208BA4250001208BA5650001285
:1016330008BA7851001208BA8B51001208BAA251A5
:10164300001208BAB751001208BA4A52001208BA77
:10165300BE52001208BA6353001208BA6E53001246
:1016630008BAD154001208BAED54001208BA395519
:10167300001208BAA755001208BAD955001208BAC1
:10168300F355001208BA5356001208BAF256001264
:1016930008BA3D57001208BA9059001208BA285ADE
:1016A300001208BA9F5A001208BAFC5C001208BA6A
:1016B300145D001208BA175D001208BA235D001208
:1016C30008BA375D001208BA3F5D001208BA765DAA
:1016D300001208BA6A5E001208BAF45E001208BA71
:1016E300765F001208BAF65F001208BACD600012E6
:1016F30008BAEF60001208BA8861001208BAE561FF
:10170300001208BAE861001208BA1562001208BA9A
:101713002A62001208BA9962001208BAE56300123D
:1017230008BAF864001208BA8365001208BA96660C
:10173300001208BA5D67001208BA8E67001208BA71
:10174300B467001208BABD67001208BAEC6700124A
:1017530008BA9C68001208BA4C69001208BABF693B
:10176300001208BA626A001208BAD56A001208BAEF
:10177300146B001208BA5D6B001208BA926B001268
:1017830008BAFCF1041208BA7DF2041208BAC4F2D2
:10179300041208BA3AF3041208BA9EF3041208BA00
:1017A30052F4041208BA96F6041208BAC7F80412DF
:1017B30008BA9CFC041208BA1CFD041208BA57FDAF
:1017C300041208BA75FD041208BAD5FD041208BA4A
:1017D300FDFD041208BA2DFE041208BA5EFE0412BF
:1017E30008BA8BFE041208BAE8FE041208BA33FFE3
:1017F300041208BA4ACD051208BAC6CD051208BAB2
:10180300F2CD051208BA24CE051208BA86CF051206
:1018130008BAA2CF051208BAE0CF051208BA6DD0F4
:10182300051208BAC9D0051208BA8FD1051208BA31
:101833004ED2051208BA93D2051208BAF4D2051291
:1018430008BA69D3051208BAA3D3051208BAFBD3A1
:10185300051208BA1DD4051208BAB5D4051208BA80
:101863005CD5051208BAA9D5051208BAD2D5051256
:1018730008BA13D6051208BAC0D7051208BAA4D8F5
:10188300051208BA55D9051208BA1FEE061208BA8E
:1018930030EE061208BACEEE061208BAF6FF0112AF
:1018A30008BAE37F001208BAE8EE061208BAF8EEA7
:1018B300061208BA0DEF061208BA9EEF061208BA0E
:1018C3002FEC061208BAB3EC061208BA19ED061289
:1018D30008BAF9FF011208BA87F2061208BA97F29A
:1018E300061208BA9AF2061208BA9DF2061208BA4C
:1018F300F87F001208BA25E1061208BA47E106127A
:1019030008BAB2E2061208BA36E3061208BA5EF261
:10191300061208BA67F2061208BA70F2061208BA7B
:101923007EF2061208BAF89D061208BA659E0612E0
:1019330008BA2D9F061208BA24A0061208BA1DA2DF
:10194300061208BA84A2061208BADCA2061208BA62
:10195300EDA2061208BAFDA2061208BA70A3061277
:1019630008BA86A3061208BA91A3061208BA9FA35F
:10197300061208BAB1A3061208BA76FA051208BA13
:10198300A2FA051208BA48FD051208BA9FFD05120E
:1019930008BADBFD051208BAEFFD051208BA08FE06
:1019A300051208BAF9FE051208BAD5FF051208BADE
:1019B300E9FF051208BA39E3061208BA5DE3061215
:1019C30008BA76E3061208BAB4E3061208BAEAE3E1
:1019D300061208BA1DE4061208BA27E4061208BA6A
:1019E30093E4061208BA96E4061208BAA0E40612B3
:1019F30008BAADE4061208BA6AD7061208BA8DD738
:101A0300061208BAD8D7061208BAF6D7061208BAC9
:101A130011D8061208BA77D8061208BA83D8061264
:101A230008BAE0D8061208BA04D9061208BACAD905
:101A3300061208BAD7D9061208BAE8D9061208BAA4
:101A43006AFF041208BA82FF041208BAAEFF041236
:101A530008BAC4A3061208BA1AA4061208BA7EA5C5
:101A6300061208BA8CA5061208BAA0A5061208BA6F
:101A73005D9A031208BAD2A5061208BAE5A50612A2
:101A830008BA67A6061208BACCA6061208BA54A763
:101A9300061208BACCA7061208BAA5A8061208BAF5
:101AA300B5A8061208BAC4A8061208BAC5F10612E8
:101AB30008BAE9F1061208BA11F2061208BA39F2A5
:101AC300061208BA16DA061208BA3DDA061208BA7E
:101AD3005CDA061208BAD1DA061208BA819F031239
:101AE30008BA337D001208BA4A7D001208BA537D42
:101AF300001208BA717D001208BA7B7D001208BA81
:101B0300857D001208BA987D001208BA257E00125E
:101B130008BA947E001208BAC27E001208BA137F74
:101B2300001208BA5F7F001208BA7A7F001208BA5F
:101B3300847F001208BA957F001208BAD87F00127A
:101B430008BA94FF011208BADFFF011208BAF8F0CD
:101B5300051208BA24F1051208BA47F1051208BAAA
:101B63005AF1051208BA75F1051208BAD5F1051232
:101B730008BA03F2051208BA07F6051208BA44F7C1
:101B8300051208BA76F7051208BADDF7051208BA86
:101B930067F9051208BA8FF9051208BAA4F90512F4
:101BA30008BAB4F9051208BAF4F9051208BA36FAF4
:101BB300051208BA46FA051208BA80E7061208BAEF
:101BC30090E7061208BAB4E7061208BADDE7061270
:101BD30008BA07E8061208BA2BE8061208BA42E860
:101BE300061208BA70E8061208BA93E8061208BA91
:101BF300AEEF061208BAF4EF061208BAEACC0612E0
:101C030008BAFACC061208BA18CE061208BA4CCE95
:101C1300061208BA6ECE061208BA96CE061208BA93
:101C2300AFCE061208BAEBCE061208BA51CF06128F
:101C330008BA96CF061208BADBCF061208BA08D044
:101C4300061208BA40D0061208BA09BD061208BA2D
:101C53006BBD061208BA18BE061208BA4FBE0612AA
:101C630008BA3EBF051208BAEDBF051208BA1FC273
:101C7300051208BAF0C4051208BA80C6051208BADC
:101C8300B9C6051208BA44C7051208BAC4CA051270
:101C930008BA0CCC051208BAFAE9061208BA45EAE2
:101CA300061208BA28FF021208BA6197061208BA88
:101CB300339A061208BA459B061208BA459C0612C7
:101CC30008BAFE9C061208BA1DAE061208BADCB0AA
:101CD300061208BA79B1061208BAA5B1061208BAF3
:101CE300D3B1061208BA08B2061208BA30B2061205
:101CF30008BA90B2061208BA42DA051208BA36DEFA
:101D0300051208BACDDF051208BAFBE0051208BABE
:101D1300D7E1051208BA85E3051208BA3AE50512B8
:101D230008BA06E6051208BA5AE6051208BAA2DC92
:101D3300061208BAADDC061208BACEDC061208BADF
:101D4300FD6B001208BA0172001208BA6673001222
:101D530008BA4275001208BA2076001208BA17773B
:101D6300001208BA5478001208BA9D79001208BA12
:101D7300B57A001208BAC77B001208BA937C001226
:101D830008BAD5D2041208BA0DD3041208BAECDD8E
:101D9300041208BAE5DE041208BA34E0041208BAE1
:101DA30095E1041208BA6EE2041208BA40E3041281
:101DB30008BAA5E4041208BA83E5041208BA88E64F
:101DC300041208BA3AE7041208BA6AE7041208BA16
:101DD30023E9041208BA99E9041208BAB2E9041211
:101DE30008BA13EB041208BAD1EB041208BA70EC68
:101DF300041208BA11ED041208BA76ED041208BAF7
:101E030014EE041208BA97EE041208BAB5EE0412DF
:101E130008BACCEF041208BA9AF0041208BA49F1CE
:101E2300041208BAB7E4061208BAE1E4061208BAC3
:101E3300F5E5061208BAF8E5061208BA62F00612CA
:101E430008BAB5F0061208BAF7F0061208BA07F195
:101E5300061208BA7F90061208BAB790061208BA9B
:101E6300FF90061208BA6891061208BA8991061201
:101E730008BAA291061208BA5492061208BA5D92E1
:101E8300061208BAAE92061208BAE492061208BA0B
:101E9300FB92061208BA6893061208BAF893061260
:101EA30008BA2E94061208BA7794061208BAD89480
:101EB300061208BA1295061208BA7A95061208BADB
:101EC300CD95061208BA1096061208BA4D96061258
:101ED30008BA5F96061208BA7196061208BAAB964C
:101EE300061208BAF796061208BA3597061208BA08
:101EF30044B3061208BA8AB4061208BAB3B4061277
:101F030008BAC4B4061208BADCB6061208BAFCB69C
:101F1300061208BAE3DE061208BA17DF061208BA79
:101F230066DF061208BAC2E0061208BA429C05121E
:101F330008BA809D051208BABC9D051208BA8B9F8A
:101F4300051208BAB59F051208BA4CA2051208BAC1
:101F53008CA2051208BA22A4051208BAB7A4051266
:101F630008BA15A5051208BA9BA5051208BAD3A588
:101F7300051208BA15A6051208BA86A7051208BAEB
:101F83000AA9051208BA33AB051208BA61AB0512E8
:101F930008BA8DAB051208BA96AB051208BAECABBA
:101FA300051208BA7CAC051208BA7FAF051208BA4D
:101FB30001B0051208BA11F1061208BA27F1061288
:101FC30008BA31F1061208BA8DF1061208BA67FB96
:101FD300031208BA80FB031208BA25FC031208BADD
:101FE30065FC031208BA7EFC031208BAB1FC0312A3
:101FF30008BAFEFC031208BA32FD031208BA74FDD4
:10200300031208BA4DFF031208BAB8FF031208BA45
:10201300CBE8061208BA25E9061208BA7FE90612C8
:1020230008BA1CEB061208BA8EEB061208BACCEB00
:10203300061208BA0DEC061208BA7C88061208BA12
:102043008288061208BAC988061208BAD58A061207
:1020530008BA058B061208BA6F8B061208BA2A8CC7
:10206300061208BA6D8C061208BA9E8C061208BABC
:10207300288D061208BA3F8D061208BA4C8D061237
:1020830008BA568D061208BAF68E061208BAE88FF9
:10209300061208BA4690061208BA0080061208BA59
:1020A3001680061208BAC880061208BAF281061210
:1020B30008BAE782061208BA8483061208BABF83F5
:1020C300061208BA3184061208BA8F84061208BAB7
:1020D3009F84061208BAC684061208BA1885061227
:1020E30008BA8086061208BA8586061208BAA78639
:1020F300061208BA5EB0051208BA68B0051208BA2B
:10210300FBB0051208BA3DB1051208BAF5B10512C4
:1021130008BA6CB2051208BAE1B2051208BA65B37F
:10212300051208BAABB3051208BAB7B5051208BA57
:1021330056B6051208BAB7BB051208BAB3BC0512E6
:1021430008BA43BD051208BA68BD051208BA36BEFF
:10215300051208BABCBE051208BADBBE051208BADE
:1021630005BF051208BA69AB041208BA93AB04128F
:1021730008BAAEAB041208BACCAB041208BAFEAB71
:10218300041208BA80AC041208BAD4AC041208BA18
:1021930096AD041208BAD8AD041208BA17AE0412E9
:1021A30008BA4CAE041208BA15AF041208BAC9B083
:1021B300041208BA06B3041208BAE8B4041208BA3F
:1021C300C5B5041208BA29B7041208BAC2B7041273
:1021D30008BA11B8041208BA56B8041208BA54B9A6
:1021E300041208BAE2B9041208BA49BA041208BAC6
:1021F300F8BA041208BA8CBB041208BADABB041288
:1022030008BA06BC041208BA29BC041208BAB3BC43
:10221300041208BA8BBD041208BA7CBE041208BAB1
:102223005ABF041208BA5CC0041208BAA9C1041246
:1022330008BAF9C1041208BA2CC2041208BA6AC255
:10224300041208BAC0C3041208BA9DC4041208BA1F
:10225300C0C5041208BA99C6041208BAA2C7041268
:1022630008BA40C9041208BA20CA041208BA74CAC8
:10227300041208BA34CB041208BA4FCD041208BAB8
:1022830063CE041208BA4BCF041208BA5BCF041210
:1022930008BA60D0041208BACCD0041208BAD6D156
:1022A300041208BACDDC021208BA25DD021208BAFC
:1022B300C5DD021208BA42DF021208BA2EE002128A
:1022C30008BAEBE0021208BA02E1021208BA53E1BB
:1022D300021208BAC7E1021208BA22E2021208BACD
:1022E30035E2021208BA99E2021208BA08E30212AE
:1022F30008BAB7E5021208BABCE6021208BA17E731
:10230300021208BA6BE7021208BA1FEA021208BAED
:102313006FEA021208BAF0EA021208BA32EB0212AA
:1023230008BA0CEC021208BA45EC021208BA64ECC3
:10233300021208BAAFEC021208BAC5EC021208BACC
:1023430080ED021208BA67EE021208BA72EE0212A8
:1023530008BAC0EE021208BA15EF021208BA61EF0A
:10236300021208BABCF0021208BAE6F0021208BA66
:102373007EF3021208BAA8F3021208BAB3F40212E7
:1023830008BAE2F4021208BA5AF5021208BA35F68C
:10239300021208BA77F6021208BAEBF6021208BA6A
:1023A30005F8021208BA52F8021208BA65F80212C6
:1023B30008BA68F8021208BA71F8021208BA8CF85F
:1023C300021208BA04F9021208BA3DF9021208BA55
:1023D30059F9021208BA86F9021208BAADF90212C3
:1023E30008BAD1F9021208BA4AFA021208BABDFAB7
:1023F300021208BA00FB021208BA0AFB021208BA58
:1024030039FB021208BA4FFB021208BA6BFB021225
:1024130008BA9AFB021208BABAFB021208BA03FC02
:10242300021208BA3EFC021208BA4AFD021208BAA6
:10243300ADFE021208BACCFE021208BAE3FE021283
:1024430008BAF5FE021208BA32ED061208BA43EDD5
:10245300061208BACEED061208BAF5A8061208BA93
:1024630033A9061208BACCA9061208BAD7AA0612CB
:1024730008BA1FAD061208BA9CAD061208BA53F883
:10248300011208BAA2F8011208BA60FA011208BAD6
:1024930034FC011208BA72FC011208BA53FD01128E
:1024A30008BA5DFE011208BA7FFE011208BADBFE0C
:1024B300011208BA5CFF011208BA0080041208BABC
:1024C3002280041208BA9181041208BADA81041234
:1024D30008BA4C82041208BACE82041208BA4383A3
:1024E300041208BA9483041208BAFB83041208BACC
:1024F300A684041208BA1B85041208BA5A8504126A
:1025030008BA9589041208BAB08B041208BAE98B89
:10251300041208BA288C041208BA3C8F041208BAB1
:10252300CC8F041208BA5D91041208BAA292041265
:1025330008BAB293041208BA2194041208BAF894A0
:10254300041208BA7C95041208BA9095041208BACA
:102553005C96041208BA9197041208BAB19904124E
:1025630008BABC9B041208BA9C9C041208BA199FAF
:10257300041208BAEF9F041208BAFBA0041208BAA7
:102583004DA4041208BA5DA4041208BA04A60412E6
:1025930008BA94A6041208BAC5A7041208BA3BA83D
:1025A300041208BABFA9041208BAFEA9041208BA91
:1025B300A5AA041208BA0080051208BA9B80051266
:1025C30008BA0E81051208BA2881051208BAC78114
:1025D300051208BA0F82051208BA4A83051208BA0F
:1025E3008983051208BA0084051208BA51840512BA
:1025F30008BAB084051208BA5C85051208BA318896
:10260300051208BA3789051208BAAC89051208BA47
:10261300878B051208BA2A8C051208BAE38C0512B7
:1026230008BA488D051208BAB78D051208BADA8EB2
:10263300051208BACF8F051208BA0A90051208BA14
:102643002190051208BAE490051208BA23910512E5
:1026530008BA9E91051208BA1593051208BACF94C9
:10266300051208BA2296051208BA9097051208BAFD
:10267300BC98051208BA4999051208BAB999051206
:1026830008BACB9A051208BAB4DB031208BA1DDCE8
:10269300031208BA65DC031208BAA9DC031208BAEC
:1026A3001CDD031208BA76DD031208BAB1DD03128A
:1026B30008BA4BDE031208BAA5DE031208BA11E00A
:1026C300031208BA8AE0031208BAB4E0031208BA84
:1026D300C8E1031208BADCE2031208BA04E30312E6
:1026E30008BA02E4031208BA13E4031208BA2BE48B
:1026F300031208BA31E5031208BA54E5031208BA03
:1027030023E6031208BA4DE6031208BA64E603127D
:1027130008BA8AE6031208BAC9E6031208BAE9E658
:10272300031208BA10E7031208BA28E7031208BA1B
:102733000BE8031208BA65E8031208BACCE90312DE
:1027430008BA4AEA031208BA6EEA031208BA85EA1B
:10275300031208BA59EB031208BAF2EB031208BAD0
:1027630018EC031208BA68ED031208BA87ED0312D6
:1027730008BA06EE031208BA3DEE031208BA7BEE5E
:10278300031208BA11EF031208BA86EF031208BA4C
:102793006AF0031208BA48F2031208BA1DF30312CF
:1027A30008BA69F3031208BA74F4031208BA92F56B
:1027B300031208BAB0F6031208BABEF6031208BA37
:1027C300BAF7031208BA5CF8031208BAA2F80312A4
:1027D30008BAB7F8031208BAC9F9031208BA6AFAB1
:1027E300031208BAC6FA031208BAF8C8061208BADE
:1027F300B3CA061208BA7BCB061208BAD0CB0612AC
:1028030008BA56CC061208BAFDC4061208BA22C585
:10281300061208BA66C5061208BA8CC5061208BAAB
:10282300B3C5061208BACBC5061208BAE3C5061229
:1028330008BAFBC5061208BAA5C6061208BAE7C647
:10284300061208BAFCC6061208BA03C8061208BA6A
:102853001EC8061208BA27C8061208BA30C80612DC
:1028630008BA39C8061208BA43C8061208BAC0C85B
:10287300061208BA50B8061208BA7CBC061208BA87
:1028830098BC061208BA9DBC061208BA09D10612F2
:1028930008BA83D2061208BA02C1061208BA18C1CE
:1028A300061208BADFC2061208BA2AC3061208BA09
:1028B30096C3061208BA9DC4061208BACCC40612FF
:1028C30008BADEC4061208BA25E6061208BA38D4D6
:1028D300061208BA95D4061208BAD5D4061208BA55
:1028E300D7D5061208BAEFD5061208BA01D60612D2
:1028F30008BA2DD6061208BA64D6061208BA74D6D8
:10290300061208BA8AD6061208BAAFD6061208BA51
:102913003DD7061208BAC5FF031208BA7999031204
:1029230008BA9598031208BAAB95031208BA6894CB
:10293300031208BACF91031208BA8A91031208BA94
:102943003091031208BA9190031208BA3C90031213
:1029530008BA698F031208BAA38E031208BA678EE6
:10296300031208BAFA8D031208BAF28D031208BAD9
:10297300678D031208BAF78C031208BA488C031246
:1029830008BA3D8C031208BA2E8C031208BA0D8CB8
:10299300031208BAD98B031208BAAD8B031208BA13
:1029A3007F8A031208BA7388031208BAF99E0312C6
:1029B30008BA4488031208BAEA9E031208BA779E3B
:1029C300031208BA5B9E031208BA3D9E031208BAAB
:1029D300259D031208BA009D031208BA109C031226
:1029E30008BA9C9B031208BA2888031208BAD28734
:1029F300031208BA9987031208BA1187031208BA97
:102A0300059B031208BAC586031208BA7E86031211
:102A130008BAB185031208BA3585031208BA939A26
:102A2300031208BA8D84031208BA1A7D001208BA79
:102A3300E683031208BA8883031208BA5D8303127C
:102A430008BA0E83031208BAD082031208BAAE8200
:102A5300031208BA8B82031208BA7282031208BAED
:102A63004D82031208BA0582031208BA4F8103127A
:102A730008BAC380031208BA5780031208BA008049
:102A8300031208BAEFFF011208BA829A031208BAB6
:102A9300EDFF011208BAEBFF011208BABDA506004B
:102AA300000080FB8F000100C41C87000100C31CD1
:102AB30035000400401E25000200441E26000200CB
:102AC300461E27000200481E28000100521E29004E
:102AD3000100531E84000400541E86000100581E8A
:102AE3002A000100591E2B0001005A1E2C00010070
:102AF3005E1E2D000800A51C2E0001005F1E2F0086
:102B03000100601E30000100611E31000100621EE1
:102B130032000100AD1C33000100AE1C3400010083
:102B2300631E36000100AF1C38000100641E39002B
:102B330001005D1E83000200781E63000100C01CBB
:102B4300640001005B1E650001005C1E6D00010056
:102B5300C11C710008009D1C66000100771E430024
:102B63000100681E44000200691E450001006B1E3F
:102B7300460002006C1E47000800B81C4800010014
:102B83006E1E4B0001006F1E040001007A1EA1009F
:102B930001007D1E370001007C1E880001007B1EA2
:102BA3003C000100B01C3D000100651E490002000D
:102BB300701E67000100C21C4D000200721E4E0011
:102BC3000100741E4F000200751E3E000100B71C79
:102BD30051000100B11C52000100661E53000100A8
:102BE300671E54000100B21C000000000000000139
:102BF3003636010100010201000103010001040155
:102C0300060605020000070100340801000F09044D
:102C130001010D0100FF0E08000017020000190159
:102C230000FF1A0100011B0100FE1C0100081D0228
:102C330000001F0100012001000121020000230107
:102C4300000F2402000026010001270100082802CA
:102C530000FF2A0100072B0102402C0100002D0177
:102C630000012E0100012F0100FF30010B1D31086F
:102C730000003A0100083B01000F3C0100013D0147
:102C830000FF3E04000042040000460400004A0422
:102C930000004E04000052040000560400005A04D1
:102CA3000000010371030103010301030103010395
:102CB30022030203010310030003000300030003C4
:102CC300000300030003420300032403060300037D
:102CD300000304031203250323032503230304032F
:102CE300040300030003000344030003000323035E
:102CF300000365032100350381030003050300037B
:102D030000030003000325032303030471040204E7
:102D13006004110470040204020401040204100498
:102D2300610400041404630473047204620443041E
:102D33000004130406040004000404041204000441
:102D430000040004000451046400000400040004AF
:102D53004404000400040004000465040004350472
:102D63008104640005040004830400040302710267
:102D730030016002110270020102020202028002AB
:102D8300100261023A00410063027302720262029E
:102D9300430200021302380000020002040212027E
:102DA300000200020002000204020402370037009E
:102DB3003C024402000239000002000265020002E4
:102DC300350281020002050282028302000203002F
:102DD30071003001600011007000310220035004C3
:102DE3008000100061000000140063007300720093
:102DF300620043000000130006000000000004000E
:102E0300120000000000000000000400040037006E
:102E130037003C0244000000000000000000650091
:102E23000000350081000000050000008300000061
:102E330001017101010101011101010131010101CF
:102E430001018001100161013B0014006301730162
:102E53007201620143010001130106013D013500C6
:102E63000401120100010001000100010401040139
:102E7300330133013C0144013201360000010001FA
:102E83006501000135008101000105018201830113
:102E9300000136000100060000000F0000000000E2
:102EA300000000000000000003FFFF00000403FF18
:102EB300FF0000FFFF0FF4010005C404032000011D
:102EC30000000B000000000000000003010F0000E1
:102ED30000000000000000000000000000000000EF
:102EE30000000000000000000000000000000000DF
:102EF30000000000000000000000000000000000CF
:102F030000000000000000000000000000000000BE
:102F13000000000000000000000000006021062106
:102F2300000000000000000000000000000000009E
:102F3300000000000000000000000000000000008E
:102F43000000000000000000000000000000F82561
:102F5300130056251F005C251F8062250100F825FC
:102F63000200DE240300E4240400EA240500F02424
:102F73000600FC2430001A253100142532002625D2
:102F830033002C25350032253400382536003E2504
:102F930011004A251400502515000E25FFFF0000DF
:102FA3000A00000002000000040000000800000006
:102FB300100000002000000040000000800000001E
:102FC30000010000000200000004000000080000EF
:102FD30000100000002000000040000001CE100699
:102FE300041108FE100B1C1110860D0A2E1102D4B9
:102FF3001005F21007DA100CB6100DC21064462942
:10300300FF000007ECFDFDFDECDCDCCCBCACAC9CB4
:103013009C8C7C7C6C6C5C5C5C4C4C3C3C2C2C1C1D
:103023001C03EAF5E5D5D5C5B5A5959585857575D3
:103033006565555545453535252515150500160F87
:1030430000000B150B020002220F3300000E5A6919
:1030530067426565416C6C69616E636530396B000D
:103063006A00690016001500300016001E000103F7
:103073000507090B0D0F00020406080A0C0D0A09C7
:103083000107050001F03001F03030301618192027
:10309300231A1C1E300001191618161618230300D4
:1030A3000C0E020B040B0A0708000F303017181917
:1030B30021301B1D1F3000393D3F373C3C362C442B
:1030C3002D00034A49434E181A2505020204020142
:1030D3000101010902000800003101121B0A041B4F
:1030E30081300000BE040AE80300000E000008005F
:1030F300007F000000E80300030008FF1E03030530
:10310300010A040409100C05081015080C281E04F4
:103113000CE004123994A2E792AF22E4F0A3F0A3E7
:10312300F022A312311EA3F0227F0C02060FE0F55A
:1031330008E4F509F50AF50B227401F0900B6AE037
:10314300640F2274091208CF7F0402060FA3A3E0C1
:1031530024F5C3941322900B8A125CB77A147B0074
:1031630022C082C0839005E374C4F0A37414F0A357
:1031730074D6F0A37414F09005E774ACF0A3741440
:10318300F0A374A6F0A37414F0A374E2F0A3741470
:10319300F0A374E8F0A37414F0A374DCF0A3741424
:1031A300F0A37494F0A37414F09005F374B8F0A32F
:1031B3007414F0A374BEF0A37414F0A374B2F0A358
:1031C3007414F0A374EEF0A37414F0900604125276
:1031D3004460061254AE121F2690060112493D7434
:1031E30008F0A3E4F0A3F09006A4F0900606F07CA8
:1031F3000BFDF97A077B06121E667C0B7D007900B6
:103203007A127B06121E6602494674F712039E74F5
:10321300F7120999EAFEEBFF12476474051232DADA
:103223007403F0EE2402FAE43F1232B4242DFCE4DA
:103233003FFD8C828D831233F21232C36008123B3E
:103243003C74FFF0A3F0EE242BE43F1C1CFD8C82A6
:103253008D83A3E0C0E08A828B83124775D0E0128E
:1032630032C388828983124F6D2403125A8112203C
:10327300347408120BC37403F0900B7F120711749C
:10328300021209637903EEFAEFFB1216927402122B
:1032930008CFE9F5087007EEFAEFFB121566A908E7
:1032A3007409023B4CF582E43FF58312672E124FFB
:1032B30062FB8A828B831232D2E8F0A3E9F0EE221A
:1032C300125CD51232D2E8F0A3E9126293E0221223
:1032D30033BD8A828B8322F0A3E4F01232E222EE22
:1032E300240DF582E43FF5832274F112039EEAFE76
:1032F300EBFF8C088D09890A1233C78A828B8312EC
:1033030033BD740F120BC31233E0E824FF18E93402
:10331300FFF988828983E50A1233D2900B84123332
:10332300CF900B831233CF7411120BC31233E0EE21
:103333002404FCE43FFD880B8A828B83E0F50C8C2C
:10334300828D83E0250CC3950B125CD1E8F0A3E9D1
:103353001246D1A3A3A3A3A3A3A3A3E0640370086A
:10336300124A2DF0A3E480031236D31232DD74091E
:10337300F0750C07750D06750E00780C120909120D
:1033830036C7121E5474031208CF750CFF750DFF58
:10339300780C12090DAC08AD097903EEFAEFFB12B4
:1033A300169274021208CFE9F5087007EEFAEFFBE4
:1033B300121566A9087F0702060FE024FFF8A3E0B1
:1033C30034FFF922EE2402FAE43FFB221233F21215
:1033D30033D622F0E824FF18E934FFF922E0F50C94
:1033E300A31233F21233D688828983E50CF022E0EC
:1033F3008882898322C082C083900623E0C3940815
:10340300400474078001E08A828B83F033333354A2
:10341300F8F902494674F012039EEAFEEBFF890CA9
:103423008C0E8D0F750A00A2AFE433F50BC2AF907B
:10343300061D803F1235005037123511640370307A
:10344300EE24F9FEEF34FFFF850882850983A3A3E9
:10345300E02405FCA3E03400FDEEFAEFFB12203478
:10346300EE24FF1EEF34FFFF7410250AF50A150C36
:1034730012469E12672AE50C6006E508450970B4FA
:10348300E50BA2E092AFA2AFE433F50BC2AF900617
:103493001D802C2402FAE43509FB8A828B83125C9B
:1034A300C02406F582E438F58312351E8A828B83A5
:1034B300123506A3A312351E050A150C12469E12D9
:1034C30046B36022123511640270F1123500E5082B
:1034D30040C1123801A2E550E3850E82850F837443
:1034E30001F0E50C70D6E50BA2E092AF8E828F83DC
:1034F300E50AF0EE24FFFAEF34FFFB803512380CB7
:10350300A2E62212350A221260B5A3A3A3228508DC
:10351300828509831260AF1256E922E08E828F837F
:10352300F0EE24FF1EEF34FFFF2212176A74041219
:1035330008CF7F0802060F74EC12039E74F512097C
:103543009989138A128B0F851882851983E4F004F5
:1035530012095B121476E9F8900B69E0292434F51B
:1035630008FA7B00121E7E8A0A8B0BAE0AAF0BEEA3
:103573004F70030236BBEE2402F50AE43FF50BA8B5
:1035830008EE28F8E43FF9850A82850B831232BCE2
:103593002404F510E43FF511851082F583E4F090DF
:1035A3000B69E0FCF8C3E498F895E0F9850A828595
:1035B3000B83E028F508A3E039F509900B6712594E
:1035C30079750E00780C1209097D00AA08AB09125F
:1035D3001E5474031208CFAC18AD197401120BC337
:1035E300E0F9E50824FFFAE50934FFFB12147C8AAD
:1035F300828B83E4F0EA24FFF508EB34FFF509E559
:103603000FC454F0F99006A5E0C4333354C0F890C6
:103613000B63E0A2E0E43313134849440F1236DB93
:10362300E512C454F04513850882850983F0A80880
:10363300850A82850B83E0FA851082851183E02A4F
:10364300C398F0850A82850B83E8F0A3E509F0129D
:1036530036D31232DDE4F0740A120BC3E4F07508BA
:1036630012750906F50A78081209091236C7121EDF
:103673005474031208CF851882851983E06009EE1C
:10368300240E1247FA4408F012167AE9F9E4F50811
:10369300F509780812090D7404120963EEFAEFFBB9
:1036A30012169274021208CFE97006EEFAEFFB804D
:1036B3000BEEFAEFFB121E847A007B00740B1208E8
:1036C300CF02312C7C0B7D00EE2418FAE43FFB2261
:1036D300124768E4F0A322E0850882850983123645
:1036E300E522F012594D2274F312039E8A0A8B0BC2
:1036F300A2AFE433F50CC2AF75080075090090065C
:103703001D802C1239285024850A82850B83A3A39C
:10371300126B578E828F83A3A31254B1121680E9C2
:10372300600A12374EC2E6F08E088F0912391D1255
:103733003BD670CFE50845096006123808D2E6F09B
:10374300E50CA2E092AF7F0502060F123752221258
:103753005966E02274F012039EEAFEEBFF8C0C8D97
:103763000D750E00A2AFE433F50FC2AF75080075F7
:10377300090090061D8020850A08850B0912380868
:10378300D2E4F0E508123801D2E7F0E50A24FBF5AC
:1037930082E50B34FFF583E0F50AA3E0F50BE50AB8
:1037A300450B6043E50A124589350BF583E0A2E733
:1037B30050D9850A82850B83A3A3120711AC0CADE4
:1037C3000DEEFAEFFB12168674021208CFE960BB06
:1037D300E508450960A1E508240D12381464017059
:1037E3000612381DD2E4F0E50FA2E092AFE50845DA
:1037F300096006121560750E01A90E0235351245D2
:10380300B31238172212380C22E508241112381487
:1038130022F582E43509F583E02285088285098350
:103823001260AFE02274F212039E74FE12099975BE
:103833000C00750D00851882851983E4F0A3F0A2AE
:10384300AF33F50AC2AF90061DE0FEA3E0FF80355B
:10385300EE24FBF582EF34FF126728780C12090D72
:10386300EEFCEFFD7A1D7B06121EB474021208CF24
:10387300EEFCEFFDAA18AB19121EA2AE08AF099019
:103883000623E014F0EE4F6027123928501DEE2472
:103893000BF8E43FF988828983E024FFF0A3E03446
:1038A300FFF08882898312524460A51239198099E6
:1038B300E50AA2E092AF900623E06031900B6AE044
:1038C300640F60069006A4E070237AFB7B05121751
:1038D3007690818212070D7AFB7B0512176A7404B6
:1038E3001208CF800874F0124B64121554AA18AB57
:1038F30019121EA88A0A8B0BAE0AAF0BEE4F601388
:1039030012148812374EA2E28E828F83A350D6748C
:10391300E980D4023BDE8E0C8F0DEE24FBF582EFA3
:1039230034FFF58322123752A2E72274F712039E63
:10393300EAFEEBFF121488124772120529E96401AB
:10394300900B86700AE02401F8A3E034008004E0C1
:10395300F8A3E0F9124DC0125172900623E07021D2
:10396300900B6AE0640F70197AFB7B05121776904F
:10397300818212070D7AFB7B0512176A7404120801
:10398300CFA9A8C2AF900623E004123994A2E7801E
:103993000DF0E9A2E7E433F8E922E508A2E092AFEB
:1039A300024C0074F712039EEAFEEBFF1239DBF0C0
:1039B300121488EEFCEFFD7A1D7B06121EAEA9A839
:1039C300C2AF900623123114900B6AE0640F7005A6
:1039D3007908121626024C00123752C2E42274F7F9
:1039E30012039E74EA120999EAFEEBFF900B63E05F
:1039F30060408518828519837401F0120BC3E412A9
:103A03003AB3120BC3AA82AB831220348E828F8304
:103A1300123823C0E0740A120BC3D0E0125CE674C0
:103A23000B120BC3AA82AB831216AAAA18AB1912E4
:103A330028747416023B4C74F712039EEAFEEBFFE4
:103A430012146AE9F974DC69601E74DD6960197423
:103A5300E469601474F369600F74DE69600A74DFEB
:103A630069600574DB697007EEFAEFFB12162C022E
:103A73004C0074F712039E74EB120999EAFEEBFFF4
:103A83008518828519837406123AB3120BC3AA826E
:103A9300AB83122034125CEB740A120BC3AA82AB01
:103AA300831216AAAA18AB191228747415023B4C78
:103AB300F0EE2413FCE43FFD74022274F712039E1C
:103AC30074F7120999EAFEEBFFEE242D1247FA6010
:103AD3006512438BAA18AB191220347408120BC356
:103AE3007403F0900B7F120711123B3C12071190E5
:103AF3000B92E0F97404120963EEFAEFFB121470EF
:103B030074041208CFE9F974DC69602374DD696019
:103B13001E74E469601974F369601474DE69600FDC
:103B230074DF69600A74E869600574DB697007EE25
:103B3300FAEFFB12162C0232A3EE123B4122242B86
:103B4300F582E43FF5832274031208CF024C00741C
:103B5300F212039E8A088B09750C00750D00750A15
:103B6300E7A2AFE433F50BC2AF90061D8003123911
:103B730019123BD6603512392850F31247F7640106
:103B830070ECEE242FF582E43F123D85E06870DE91
:103B9300780C12090DEEFCEFFD7A1D7B06121EB4A4
:103BA30074021208CF900623E014F0E50BA2E09212
:103BB300AFEE4F6013EEFAEFFB12148879F0EEFAD2
:103BC300EFFB12162C750A00A90AAA08AB091216F4
:103BD3002C800DE0FEA3E0FFEE4F2274021208CF0B
:103BE3007F0602060F74F412039E74F7120999EA12
:103BF300FEEBFF8E828F83A3E064F37003023C929B
:103C03008E828F83A3E064DF7003023C928E828FE7
:103C130083A3E064E860788E828F83A3E064DB6033
:103C23006E1214CAE9F508705EEE240E1247FA60AC
:103C330056123C9C121512EA4B604C7408120BC3CB
:103C4300123CA61207117508FF7509FF78081209BF
:103C53000D8E828F83A3A3A3A3A3A3A3A3E0F974CD
:103C63000412096312147074041208CFE9F508747E
:103C7300F36508601274DF6508600C74E86508601A
:103C83000674DB6508700F8E828F83A3E508F0EE60
:103C9300FAEFFB1214D6023146EE240FFAE43FFB8F
:103CA30079092274021264F074FFF0A3123CB32268
:103CB300123CB722124F76A3A32274F512039E8AF5
:103CC300088B097E008A828B83A3A3A3A3A3A312D9
:103CD300315040027EE88A828B83A3A3A3A3A3A3CC
:103CE300A3A3A3A3E0C3941040047EE880138A82B5
:103CF3008B83A3A3A3A3A3A3A3A3A3A3E0640F60A2
:103D03000A900681E0540870027EE8EA240BF582EB
:103D1300E43509123D85A3A3A3A3A3A3A3A3E0C3EF
:103D230098500CEA240B123814640F60027EE8905A
:103D33000B83E0F47003A3E0F470027EEC7A237B40
:103D430000121F209006041254C19006041252441C
:103D53006029850882850983A3A3A982AA83890888
:103D63008A09750A0078081209097C237D00125418
:103D7300AE121E5474031208CF80027E1AEEF902AB
:103D83006691F583E0F88A828B83A3A32274F512EC
:103D9300039EEAFEEBFF8E828F83A3A3A3A3A3A3B9
:103DA300A3A3E0900B6A1263D3900B851263B990BF
:103DB3000B651263D89006A5F0F9121AEE9006A5CA
:103DC300E06018EE2404FAE43FFB7950121AD6EEB1
:103DD3002406FAE43FFB79E1121AD69006A41231C5
:103DE3003C60047401800274009006061263BF12E3
:103DF30009097C0B7D007A077B06121E547403129B
:103E030008CFEE2418F508E43FF5097808120909EC
:103E13007C0B7D007A127B0602668974F712039E7F
:103E2300EAFEEBFF8E828F83A3E070061254AE127C
:103E330014D08E828F83742C124B64121644024C5E
:103E43000074F712039EEAFEEBFF9006041252443D
:103E5300600D1254AE900604E4F0A3F0121F268EF8
:103E6300828F837408124B64122874024C0074F618
:103E730012039E9006A4E06013900606E0700D12F4
:103E83003E92121482EA4B6003121566025FF190B0
:103E93000B65E0FB900B85E0FA900B6AE0F9227466
:103EA300F412039E74E7120999EAFEEBFF750B0106
:103EB3008E828F83A3A3A3A3A3A3A3E0A2E250684C
:103EC300EE242BF582E43F126B55123F6012148EE1
:103ED300E97055908100E064017005750B0080481E
:103EE300123F681209097C0B7D00741112095B12E1
:103EF3001E5474031208CF12167AE9FA740E1209CB
:103F03005388088909780812090D75083075090066
:103F1300780812090D123B3C120711125C877901D4
:103F230012169874061208CF8518828519837410A7
:103F3300123AB3120BC3AA82AB83122028123B3C62
:103F4300125CB3740B120BC3125172740D120BC3B8
:103F5300E50B1249D71228747419023148EE241361
:103F6300FAE43FFB22EE24081263C722C082C08317
:103F73009006A5E060031216EC024946C082C08396
:103F830090069C74E3F0A37405F0A374E7F0A374A4
:103F930005F0A374F3F0A37405F0901DEB740DF01A
:103FA300A3742DF09006867464F0A37414F0900645
:103FB30028749AF0A37414F090062A74A0F0A374E2
:103FC30014F0900681E044028001E4F0024946C007
:103FD30082C083EAFCEBFD7903024FE2C082C08317
:103FE300EAFCEBFD7905024FE2C082C08379080247
:103FF3006182C082C08374FE120999900630744EA8
:10400300F0A37415F09006327448F0A37415F08091
:104013000D7A1D7B06121EA81249CD121668900652
:104023001D12524470EB90061F125244600F7A1F08
:104033007B06121EA81249CD12166880E990061D50
:10404300E4F0A3F090062312311F7402800274116E
:104053001208CF02494674F612039EE9FF74B92988
:10406300F582E43430F583E493FEFA7B00121E7E7E
:10407300EA4B6011EA2E1251688A828B83A3A3A3B1
:10408300A3E4F0802C7A027B00121E7EEA4B601DB3
:1040930074AE2FF582E43430F583E4938A828B8304
:1040A300F0A3741AF090067CE0F9121E8A7A007B62
:1040B30000025FF1E9FC740629F8EAA2E0501EE869
:1040C30075F00A84E5F0F96014740A28C399F8E9D5
:1040D300C394054004740A28F8740B28F8ECC394BD
:1040E3001340047A1480027A06EA2879002409F836
:1040F3005001097A0A7B0012024EE8F90208B7C0A0
:1041030082C083900681E05402600A12287AE96033
:1041130004790180027900024946C082C083900677
:1041230081E054026016900623E0700C1252416045
:104133000BE0C81246AB50047901800279000249B2
:1041430046C082C0839080FDE0F8900625E0C398C6
:104153005005121E7E80047A007B00024946C0820D
:10416300C083121668790002494674F712039E74DD
:10417300FE120999851882851983EAF0A3EB12428E
:10418300DCA3A3A3A3A3E0600A14606024FE606918
:1041930002425D900B6AE0640F601812163EE970EC
:1041A300128518828519831254B190062C12477513
:1041B300120529900B92E0C0E085188285198312BD
:1041C3004F40D0E01242DC74141264EC126B577A45
:1041D3001F7B06121EA2A8A8C2AF900625E00412F8
:1041E30054C779201216267402023B4C8518828527
:1041F30019831260B7741580D085188285198312CC
:1042030042BFA3A3E06053851882851983E024028B
:10421300F8A3E03400F98882898312692AE0C0E0B8
:10422300851882851983E0FCA3E0CC2406F582E49B
:104233003CF583D0E0125CF3888289831254C185F4
:1042430018828519831245A78518828519836013FF
:104253001242C460051242CC4043AA18AB1912168D
:104263006880841242C460F21242CC501C1246BBD6
:10427300FA8518828519831242C6F874CE125163E7
:104283003430F583E4936A601485188285198312A8
:1042930042C4640870C41246BB640870BD1246BBB6
:1042A300141242E4240AC0E0851882851983124758
:1042B30075D0E01242E4040241CCE0F8A3124F8D22
:1042C30022E0F8A3E01242EB2285188285198312BB
:1042D3005CC41242ECC3940A221242F6F58388822C
:1042E300221242F61242EB22C82406F582E438F584
:1042F30083E0221264F0E0F8A3E022C082C083903E
:10430300063412524460081260B8120529800279FB
:104313000002494674F712039EEAFEEBFF1232E2F3
:104323007401F0EE2430F582E43FF583125A211232
:1043330032BC24321247FAC0E0EE2413F582E43F84
:10434300F583D0E0F0EE24331247FAC0E0EE2414F4
:10435300F582E43FF583D0E0F0EE242CF582E43FD0
:10436300F58312071112438BEE242E1247FAF9122A
:10437300169274021208CFE9F5087007EEFAEFFB04
:10438300121566A908024C00EE2423FCE43FFD222B
:10439300C082C08312163EE960047920800279014D
:1043A300024946C082C083EA12458912444AD2E0D8
:1043B300023FCEC082C08312444464017011124490
:1043C3004F400C8A828B83A3E0F912162C806FEA8C
:1043D3002410124447A2E650128A828B83A3E0F989
:1043E30090062E1247751205298053124444640126
:1043F300700D12444F50088A828B83743080368A42
:10440300828B83A3E0641B8A828B83700474228073
:1044130024A3E0700D124444F8748D1251633430B8
:10442300800B124444F874AE1251633430F583E4C4
:10443300938A828B83F090067CE0F9121E8A0249EC
:1044430046EA240DF582E43BF583E022EA1245B304
:104453003BF583E0A2E32274F712039EE9FE1252B6
:10446300417003024580EE6011741B6E7013E0C847
:104473001245836405700302454B1260A7E40245AD
:104483004F74E96E706212459F700B122880E960C9
:10449300051245B9606279EE121A4C900626124550
:1044A3009C900626603B1245BC900626700B124575
:1044B3009C14F0121C1A0245801245A7C2E712464B
:1044C300C71245836403700C125CBD124589124206
:1044D300F1D2E2F079ED121A4C12458F12052980C0
:1044E300751260AA74E9806474E16E703E122880CC
:1044F300E960551245B97050900B8CE0C0E0125C36
:10450300BD2412F582E438F583D0E0F0900B7BE014
:10451300C0E09006261242BD1242BDD0E0F0900BDF
:104523007BE004F07901121C028052741C6E701837
:104533009006261254B1900636124775120529903B
:104543000626E4F0A3F080351260A7EEF09006266D
:104553001254B1121554125CBD125C8FE05480608A
:1045630010900B92E0F9121B12900B91E0F9121BC1
:1045730006900626E4F0A3F07910121626024C00EA
:10458300240D1242EE222411F582E4229006261213
:1045930054B590062A1260B122E0F8A3E0C82412B1
:1045A3001242EE22E0F8A3E0C81245B31242F12210
:1045B3002410F582E422900626125CC4125C93E078
:1045C30054042274F412039E750A00750B00A2AF03
:1045D300E433FFC2AF1252416003024683124772B3
:1045E300120529E94410F890061D800985080A85FB
:1045F300090B12469E1246B3700302468312380813
:10460300586870E8780A12090DAC08AD097A1D7B69
:1046130006121EB474021208CF900626E508F0A312
:10462300E5091246C71246AB405D900624E014F03C
:10463300EFA2E092AF900626E0240EF8A3E0340048
:10464300F9880889098882F5831254B190062612E5
:1046530046C1F9121518E9900621F01246CFE0542D
:10466300809006266026125CC024131242EEF912D3
:104673001B12125CBD24141242EEF9121B068018A1
:10468300EFA2E092AF801190062380A11245A7A26A
:10469300E1B3E433F9121C0202314BE50824FBF5C4
:1046A30082E50934FFF5832224111242EEA2E722A8
:1046B30012672EE50845092285188285198312356C
:1046C3000AA3E022F0900626125CC422A3E4F0853C
:1046D30008828509832274F712039EEAFEEBFF1218
:1046E3001662EE24101247FAA2E3400C1247F76455
:1046F3000170059080FB80039080FCE0F9EEFCEFF5
:10470300FD7A1D7B06121EBAE96046EEFAEFFB90B6
:104713000630124775120529EE240E1247FA540487
:104723007020A8A8C2AF900624E0041254A7FAE8A8
:10473300A2E792AF124764A3E054017021121560FF
:10474300801CEEFAEFFB90062812477512052980AC
:104753000D8E828F83A374F1124B64121554024C95
:104763000012476822EE240EF582E43FF58322907F
:1047730006321260B122C082C0831215600249461C
:1047830074F712039EEAFEEBFF7900900681E05472
:1047930002700CEE24301247FA5404600279E89058
:1047A3000681E05460700CEE24301247FA54026024
:1047B3000279E88E828F83A3A3A3A3E0F8908101FB
:1047C300E0C398500279E8EE242E1247FA700CEEFB
:1047D300242B1247FA700479F5800BE97005121542
:1047E30042E9F9E96007EEFAEFFB12162C024C00DE
:1047F30034FFF509EE240DF582E43FF583E022C092
:1048030082C0838A828B83740DF012287402494616
:10481300C082C0838A828B83E4F0A3F0EA2430123F
:10482300444754049080FB7012E0F8900624E0C3E0
:1048330098401279F112162C024946E0F8900623AB
:10484300E0C39850EE90067CE0F9121E8A80E9746A
:10485300F612039EE9FE244CFAE43400FB121E7E9A
:10486300EA4B6012EE8A828B83A3A3A3A3F0EA240C
:104873004C12516880047A007B00025FF1C082C051
:104883008390063874AEF0A37415F0A374DEF0A31E
:104893007415F0A374B4F0A37415F0A374BAF0A361
:1048A3007415F0A374D8F0A37415F0A374CCF0A31B
:1048B3007415F0A374C6F0A37415F0A374E4F0A305
:1048C3007415F0A374EAF0A37415F0A374F0F0A3C5
:1048D3007415F0A374FCF0A37415F0A374C0F0A3D3
:1048E3007415F0A374A8F0A37415F0A374A2F0A335
:1048F3007415F090065474D2F0A37415F0A374F6F3
:10490300F0A37415F0A3742EF0A37417F0A374022C
:10491300F0A37416F0A37408F0A37416F09006784D
:10492300E4F090067BF090066412493D7402F09027
:10493300066D12493D7401023FCE7426F0A374162E
:10494300F0A322D083D0820208B774F512039E74B9
:10495300F11209998518828519837402F074011282
:104963000BC3E9F060047AFF7BFF7402120BC312DE
:1049730054C1750870750906750A0078081209098B
:104983007C0B7D007407120BC3AA82AB83121E54E7
:1049930074031208CFAA18AB19122874740F026695
:1049A3008E74F712039E74FD120999851882851976
:1049B30083740AF07401120BC3E9F07402120BC37F
:1049C300EA1249D7122874023B4A85188285198353
:1049D300EAF0A3EBF0AA18AB192274F612039E7443
:1049E300F7120999EAFEEBFF124A2D1232DA74022A
:1049F300124B55AA18AB19122028EE242E1232A8F6
:104A03002430125A8E12090D740212096379831A23
:104A13001AEFFB12169274021208CFE9F508700719
:104A2300EEFAEFFB121566025FEA12476874012281
:104A330074F012039E126577120B547808790C12E6
:104A430002AF78081209057A677B0602352D74F4E4
:104A530012039E74C6120999900B6AE0640F6010EA
:104A6300851882851983742E1249D712164480271C
:104A73007A5E7B061217761231591202568808891C
:104A830009E4F50AF50B78081209057A5E7B06122C
:104A9300176A74041208CF743A02314874F512038A
:104AA3009EEAFEEBFF8E828F83A3E0F86003024B46
:104AB3003EEE242D1247FA64026007E064036002AD
:104AC30078E8EE2423F582E43FF583123152400463
:104AD30078E8806AE87064EE2423FAE43FFB79E126
:104AE300121AD6EE242EFAE43FFB7950121AD6EEB0
:104AF300242D1247FA6402700E125C7D125CB3908F
:104B03000B791251728012900B7974FEF0A3041288
:104B13004B557A707B0B122034EE2418123F6B1224
:104B230009097C0B7D007A707B06121E54740312F4
:104B330008CFEEFAEFFB12159CE9F8E86011E88E56
:104B4300828F83A3125EDF7417124B641216440222
:104B53006691F0EE2425FCE43FFD228E828F837460
:104B630029F0EEFAEFFB2274F612039E74F7120992
:104B73009990067BE0703B7401F0F9121BC6AA18EA
:104B8300AB19121674750870750906780812090DA9
:104B9300750801750900780812090D900B7F12073B
:104BA3001174061209637A037905121698740612B2
:104BB30008CF025FEC74F712039EEAFEEBFF790164
:104BC300121BCC8E828F83E064207004A374EBF0FD
:104BD30090067BE0A2E25003C2E2F0E0A2E15008BB
:104BE300124E02121596800C8E828F83742A124BFA
:104BF300641216448007EEFAEFFB1216E07F0102FF
:104C0300060F74F412039E74FE120999EAFEEBFF79
:104C13007901121BCC7A5E7B061217767A677B06C4
:104C2300121776124F4C851882851983124F80E034
:104C3300F50B700FAA18AB197953121AD612671E07
:104C4300121AD6123F681209097C0B7D007A707B19
:104C530006121E5474031208CF8518828519831215
:104C630054B1A90B12159090067BE0A2E1500C7A87
:104C7300008E828F83A3E0F912159690067BE4F0F1
:104C8300740202314874F712039EEAFEEBFF8E8230
:104C93008F83A374EBF090067BE0A2E150077A00C8
:104CA30079EB121596EEFAEFFB1215CC024C007459
:104CB300F712039EEAFEEBFF7901121BCC7A5E7BAF
:104CC300061217767A677B06121776900678E4F059
:104CD30090067BF07AFF7BFF8E828F83A3E0F9122D
:104CE3001590024C0074F712039EEAFEEBFF1215B7
:104CF300C6024BF974F712039EEAFEEBFF79011229
:104D03001BCC8E828F83A3A3A3A3E06004740080D3
:104D13000274EB124D495003C2E2F0E0A2E15008E5
:104D2300124E4B1215968014A2E050108E828F8380
:104D3300742AF0A374EB124B64121644EEFAEFFBE1
:104D4300121578024C008E828F83A3F090067BE0CD
:104D5300A2E22274F612039EEAFEEBFF90067BE0CA
:104D6300D2E1F07901121BC68E828F83A3E0703CDF
:104D730012167AE9FAEE240DF508E43FF5097808EE
:104D830012090D750801750900780812090D124DF5
:104D9300C0120711EE2402FCE43FFD7905121698B8
:104DA30074061208CFE98E828F83A3F08E828F83DD
:104DB300A3E060067A00F9121596025FF1124DC462
:104DC30022EE240BF582E43FF5832274F712039E4F
:104DD300EAFEEBFF7901121BCC8E828F83E0642005
:104DE3007004A374EBF090067BE0A2E25003C2E2EE
:104DF300F0E0A2E15006124E02121596024C00C2D8
:104E0300E1F07A008E828F83A3E0F92274F7120314
:104E13009EEAFEEBFF7901121BCC7A5E7B0612172A
:104E2300768E828F83A3A3A3A3E060047400800221
:104E330074EB124D495003C2E2F0E0A2E1500612B6
:104E43004E4B121596024D3FC2E1123CB3A3E0A2B2
:104E5300E4E433FA8E828F83A3E0F92274F712031A
:104E63009EEAFEEBFF7901121BCC8E828F83A37423
:104E7300EB124D4E5003C2E2F0E0A2E15006124E97
:104E830002121596024C0074F712039EEAFEEBFF22
:104E93007A5E7B06121776EEFAEFFB1215F0024BE1
:104EA300F974F712039EEAFEEBFF7A5E7B06121794
:104EB30076EEFAEFFB1215F0024C0074F712039E24
:104EC30074EF120999EAFEEBFF125C877A707B0B91
:104ED300122022E960628518828519837409F074AF
:104EE30001120BC374EFF0124F4CF87402120BC390
:104EF300E8124F80A3A3E0C0E07404120BC3D0E018
:104F0300124F6D640870158E828F83A3A3124F40D6
:104F1300E0C0E07405120BC3D0E080067405120BE9
:104F2300C3E4125CE67406120BC3AA82AB831216A7
:104F3300AAAA18AB191228747411023B4C125CC450
:104F43002407F582E438F58322124F62FB8A828BB1
:104F530083125CB788828983E0FCA3E0F9EC22EE3C
:104F63002402F8E43FF9E8FAE922124F7122124FC2
:104F730076E022F08E828F83A3A3A3A322F0A3E97A
:104F8300125CD5124F8A22E0F8A31260B8A3A322C1
:104F9300C082C0831216EC024946C082C0839006C9
:104FA300987438F0A37406F0A37454F0A37406F055
:104FB300901DE57433F0A3742EF0A3746FF0A37403
:104FC3002DF0900684748AF0A37415F0900681E0A6
:104FD3004401023FCEC082C083EAFCEBFD7902129A
:104FE3001650024946C082C083790602618274F674
:104FF30012039E74FE12099990067D1252446007B3
:105003007A7D7B06121668900683E4F0901AF612F6
:10501300524460268007AA18AB1912166890067CC2
:10502300E0F9121E968A088B09A808A90985188237
:10503300851983125172E84970DC7402025FEE74C1
:10504300F712039EE9FA7B0090067CE0F9121EC07A
:10505300024C0074F712039E74F0120999EAFCEBF8
:10506300FDE9FE8C828D83E0F874A3125163343022
:10507300F583E493C0E07401120BC3D0E0F0640B3A
:10508300700DEE8C828D83A3F01216CE025156E082
:105093007003025156640C6003025147741A6E7018
:1050A3000B7404120BC3E4F0A30251467404120BF5
:1050B300C3ECF0A3EDF0EC242F12515BC0E07403BA
:1050C300120BC3D0E012628A120B7C7406120BC35C
:1050D300120B708C828D83125CAA740A120BC3129A
:1050E3005172EC240E12515B5410600985188285AD
:1050F3001983E48013EC241212515BF8900B8CE0BB
:10510300C398851882851983F0E0C0E0740C120BF4
:10511300C3D0E0F0EC241512515BC0E0740D120B08
:10512300C3D0E0F0EC241612515BC0E0740E120BF6
:10513300C3D0E0F0EC241712515BC0E0740F120BE4
:10514300C3D0E0F07402120BC3EEF0740112095BDA
:105153001228747410023B4CF582E43DF583E0227F
:1051630028F582E422F8E43BF98A828B83A3A3E83F
:10517300F0A3E9F022C082C083900683E070047933
:105183000180027900024946C082C083900683E011
:10519300600464027004790180027900024946C008
:1051A30082C083900683E0640370047901800279EE
:1051B3000002494674F712039E900683E012522EB2
:1051C300126B558A828B83E0C2E7F025E0F8EC127C
:1051D30051633DF583A3E493FE12522EF5831252DD
:1051E300446005EE900683F08A828B83E012523A84
:1051F300EC28F582ED39F583E493FCC4540F25E0E4
:10520300F874921251633406F583125244700512F6
:1052130016BC8014EC540F25E0FCE82CF582E4392D
:10522300F583124775120529024C0012523A74E3B2
:1052330028F582741D392225E0F8E433F92290061B
:1052430026125CB7E8492274F112039E74FE120918
:1052530099890AEAFEEBFF125346FA7B00121E7E7F
:105263008A088B09EA450960388A828B83E50AF04C
:10527300A3E4F08E0C8F0DF50E780C120909A80A21
:10528300125353EA2402FAE43509FB121E54740341
:105293001208CFAA08AB0990067CE0F9121E8A8097
:1052A30012851882851983E50AF0791AAA18AB19B1
:1052B30012162C74021208CF0233B874F212039E32
:1052C30074FE120999890B8A088B09125346F50A51
:1052D300FA7B00121E7E8A0C8B0DAE0CAF0DEE4FC7
:1052E300604A8E828F83E50BF0A3E4F0A80AEE28D0
:1052F300F8E43FF98E828F831251708E828F83A3DD
:10530300A3A3A3E4F0F50A7808120909A80B125322
:10531300531236CB121E5474031208CFEEFAEFFB6E
:1053230090067CE0F9121E8A790080148518828524
:105333001983E50BF0791AAA18AB1912162C791AEE
:10534300023BDE74C429F582E43430F583E493220E
:10535300749828F582E43430F583E493FC7D0022CD
:10536300C082C083E990067C023FCE74F612039E8E
:1053730074FE120999EAFEEBFFEE54207037804069
:10538300A8A8C2AF900625E0141254A7F508E8A216
:10539300E792AF8A828B8312549E90067F1254C188
:1053A300121644851882851983E0641560077A7F95
:1053B3007B061216687A1F7B06121EA8EA4B70C082
:1053C300EF54807012801C90067F1254C112164451
:1053D3007A7F7B0612166890067CE0F9121E96EA25
:1053E3004B70E4EE5410600E851882851983742D7A
:1053F3001249D7121644EEA2E0500E851882851981
:105403008374241249D7121644EE5402600E851891
:105413008285198374251249D7121644EE54046009
:105423000E85188285198374261249D7121644EE05
:105433005408600E85188285198374281249D7127F
:105443001644EE544060107401120BC31264EB74E3
:105453002C1249D7121644EE548060107401120BBB
:10546300C31264EB742F1249D712164490067D12AF
:1054730052446020A8A8C2AF90067D1254B1900692
:105483007DE4F0A31254C71254C01216447A7F7BF2
:10549300061216687A007B0002503DE0851882856B
:1054A3001983F022F0E8A2E7E433229006041254B1
:1054B300B522E0FAA3E0FB22A3A3A3A3A3A3EAF0EC
:1054C300A3EBF0221254A7FEE8A2E792AF22C08218
:1054D300C08390067F125CB3EA687002EB697007C1
:1054E30090067FE4F0A3F002494674F712039EEAA4
:1054F300FEEBFFEE4F700312189CA2AFE433F508E6
:10550300C2AF8E828F831252446028E824FBFAE9EB
:1055130034FFFB90067F126B57E86C7002E96D70E5
:105523000790067FE4F0A3F08E828F83E4F0A3F06C
:10553300121F2602399DC082C0839006A674B0F064
:10554300A37416F0A374C2F0A37416F0A374C8F086
:10555300A37416F0A37472F0A37415F0A374CEF0C1
:10556300A37416F0A3746CF0A37415F0A37478F00D
:10557300A37415F09006B474FEF0A37416F0A3742C
:10558300D4F0A37416F0A374DAF0A37416F0A37422
:10559300E6F0A37416F0A374E0F0A37416F090067B
:1055A300A5023FCDC082C083900B79E064FE7003F7
:1055B300A3E0F470097C707D0B12202880158A8289
:1055C3008B83A3A3A3A3A3A3A3A37402F0125729BA
:1055D300125172024946C082C083900B83C3E09488
:1055E300FEA3E094FF400479038002790202494656
:1055F300C082C0831257348C828D831256E968703F
:1056030039740268701C8A828B83125642E0687078
:10561300298A828B83A3125642A3E068701C790106
:10562300801A7403687013EC2405FC50010DEA24FE
:1056330005FA50010B12202E80027900024946A37D
:10564300A3A3A3A3E0F88C828D83A3A3A3A3A32284
:1056530074F612039E7E00740A120BC3E01256DD29
:10566300FF8A828B83A3A3A3A3A3A3A3A3E06F7047
:105673006474026F704E8A828B83C082C083888277
:105683008983A3A3A3A3A3E0F50888828983A3A3A3
:10569300A3A3A3A3E0FBAA08D083D082E06A70038C
:1056A300A3E06B703088828983A3A3A3E0FA888286
:1056B3008983A3A3A3A3E0F9EA6C7002E96D7015D3
:1056C3007E01801174036F700CE82405FCE439FD3E
:1056D30012202EE9FEEEF9025FF1F8A3E0F98882C9
:1056E30089831256E922A3E01313543F540322C0C3
:1056F30082C0838A828B83A3A3A3A3A3A3A3A3E0D0
:1057030064027014125729E0687003A3E0697004FF
:105713007901800F7900800BEAFCEBFD7A707B0B3B
:10572300122022024946900B79125CB78A828B833E
:10573300228A828B831256E9F82274EC12039EEAC2
:10574300FEEBFF8C128D13750A008C828D83A3A34D
:10575300A3A3A3A3A3A3E0F510E9A2E75008750C44
:10576300FF750DFF8006900B7F125979E9C2E7F5AB
:1057730011EE240E1247FA5420600712595A740886
:10578300800412595AE41259815404600712596271
:105793007480800512596274101259815410600686
:1057A300125932E4800B900B8CE0C0E0125932D0D6
:1057B300E0125981A2E05003750A20540860067470
:1057C30010450AF50A8E828F83A3A3E024FFF50810
:1057D300A3E01247F3C39402E0400B640B6005E0BF
:1057E300141236DB7403450AF50A750B00900B9F00
:1057F300E0640170118E828F83A3A3A3A3E0C394FB
:10580300674003750B1085110E750F00740E780E2B
:10581300120A9CE50F450BF50B7414120BC3E0F54C
:105823000EA3E0F50F74026511700E900B8412360F
:10583300DA900B831259708013740365117012127E
:10584300593C7C937D0BAA08FB12203412594980E2
:1058530004E5116028E5106014E50E650C7004E59D
:105863000F650D70087440450AF50A80108508829B
:10587300850983E50D125987E50C1236E185100C75
:10588300750D00740A780C120A9CE50D450BF50B97
:10589300740265107015851282851383A31236DA9C
:1058A30085128285138312597080137403651070F7
:1058B3001212593CAC12AD13AA08FB122034125930
:1058C300498004E5106010850882850983E50F127D
:1058D3005987E50E1236E1A808A909E824FFF5085F
:1058E300E91247F37005900B6F8003900B7BE0FA8E
:1058F30004F0EA888289831246D1E50B125987E5C1
:105903000AF0EE2404F8E43FF91233C7AC088A82A4
:105913008B83E0F50A88828983E0250AC39C125CA5
:10592300D1ECF0A3E509125E4DE4F0F902312CEE5F
:105933002412F582E43FF58322E50824F9F508E50E
:105943000934FFF5092212594D22E50824FFF50811
:10595300E50934FFF50922EE1245B33FF583221220
:10596300596622EE2411F582E43FF58322E085088F
:1059730082850983F022E0F50CA3E0F50D22F012F5
:105983004768E0221236E5850882F5832274EE1219
:10599300039E890A8A0B8C108D11750C1A741612CA
:1059A3000BC312672AAA08FB1215128A0E8B0FAEBD
:1059B3000EAF0FEE4F60607414120BC3125A21E83E
:1059C300F0A3E91232DDE50AF085080C85090D75AF
:1059D3000E00780C1209091236C7121E54740312F2
:1059E30008CF7412120BC3120711AC10AD11A90B1F
:1059F300EEFAEFFB12169274021208CFE9F50C705F
:105A030016E50A24F9600314700612374ED2E5F046
:105A1300EEFAEFFB121566A90C7F0A02060F12605D
:105A2300C61247692274F612039E74F7120999EAA3
:105A3300FEEBFF7801EE242F1247FA60027805127D
:105A43004764E81232DA7404125A81122028EE24D1
:105A53002C1232A8242E125A8E12090D7402120926
:105A63006379031A1AEFFB12169274021208CFE934
:105A7300F5087007EEFAEFFB121566025FEAF0EE27
:105A83002423FCE43FFDAA18AB1922F582E43FF579
:105A9300831233F2124F7104F078082274F2120366
:105AA3009E8A088B09ECFEEDFF8A828B837405F0D6
:105AB300EE24321247FA8A828B83A3A3F0EA2403EB
:105AC300F50AE43509F50B850A82F5831259791233
:105AD3005C7D120B7CE50C124589350DF583120BA9
:105AE30070125C87AA0CAB0D122028850A82850BE5
:105AF300831260BEFAA3E0FB88828983A3A3A31267
:105B030054BBEE242F1247FAC0E0125C9CD0E01283
:105B13005CDB2415F582E438F583E4125CDB125C6C
:105B23008FE4125CE6850A82850B83E02416FAA3D0
:105B3300E03400FB1216AA8E828F83A3A3A3A3A330
